{
  "contractName": "ResearchProjectFactory",
  "abi": [
    {
      "anonymous": false,
      "inputs": [
        {
          "indexed": true,
          "internalType": "address",
          "name": "previousOwner",
          "type": "address"
        },
        {
          "indexed": true,
          "internalType": "address",
          "name": "newOwner",
          "type": "address"
        }
      ],
      "name": "OwnershipTransferred",
      "type": "event"
    },
    {
      "inputs": [],
      "name": "owner",
      "outputs": [
        {
          "internalType": "address",
          "name": "",
          "type": "address"
        }
      ],
      "stateMutability": "view",
      "type": "function",
      "constant": true
    },
    {
      "inputs": [],
      "name": "renounceOwnership",
      "outputs": [],
      "stateMutability": "nonpayable",
      "type": "function"
    },
    {
      "inputs": [
        {
          "internalType": "address",
          "name": "newOwner",
          "type": "address"
        }
      ],
      "name": "transferOwnership",
      "outputs": [],
      "stateMutability": "nonpayable",
      "type": "function"
    },
    {
      "inputs": [
        {
          "internalType": "uint128",
          "name": "minimum",
          "type": "uint128"
        },
        {
          "internalType": "address payable",
          "name": "researcher",
          "type": "address"
        },
        {
          "internalType": "address",
          "name": "stablecoinContract",
          "type": "address"
        },
        {
          "internalType": "uint32",
          "name": "feePercentage",
          "type": "uint32"
        }
      ],
      "name": "createResearchProject",
      "outputs": [],
      "stateMutability": "nonpayable",
      "type": "function"
    },
    {
      "inputs": [],
      "name": "getDeployedProjects",
      "outputs": [
        {
          "internalType": "address[]",
          "name": "",
          "type": "address[]"
        }
      ],
      "stateMutability": "view",
      "type": "function",
      "constant": true
    }
  ],
  "bytecode": "0x608060405234801561001057600080fd5b5061002d61002261003260201b60201c565b61003a60201b60201c565b6100fe565b600033905090565b60008060009054906101000a900473ffffffffffffffffffffffffffffffffffffffff169050816000806101000a81548173ffffffffffffffffffffffffffffffffffffffff021916908373ffffffffffffffffffffffffffffffffffffffff1602179055508173ffffffffffffffffffffffffffffffffffffffff168173ffffffffffffffffffffffffffffffffffffffff167f8be0079c531659141344cd1fd0a4f28419497f9722a3daafe3b4186f6b6457e060405160405180910390a35050565b615e4a8061010d6000396000f3fe60806040523480156200001157600080fd5b50600436106200005e5760003560e01c8063715018a614620000635780637ac3886e146200006f5780638da5cb5b1462000091578063e15306fd14620000b3578063f2fde38b14620000d3575b600080fd5b6200006d620000f3565b005b620000796200010b565b60405162000088919062000569565b60405180910390f35b6200009b6200019b565b604051620000aa91906200059e565b60405180910390f35b620000d16004803603810190620000cb9190620006c4565b620001c4565b005b620000f16004803603810190620000eb919062000736565b6200027d565b005b620000fd62000308565b6200010960006200038d565b565b606060018054806020026020016040519081016040528092919081815260200182805480156200019157602002820191906000526020600020905b8160009054906101000a900473ffffffffffffffffffffffffffffffffffffffff1673ffffffffffffffffffffffffffffffffffffffff168152602001906001019080831162000146575b5050505050905090565b60008060009054906101000a900473ffffffffffffffffffffffffffffffffffffffff16905090565b620001ce62000308565b60008484848433604051620001e39062000459565b620001f39594939291906200079b565b604051809103906000f08015801562000210573d6000803e3d6000fd5b5090506001819080600181540180825580915050600190039060005260206000200160009091909190916101000a81548173ffffffffffffffffffffffffffffffffffffffff021916908373ffffffffffffffffffffffffffffffffffffffff1602179055505050505050565b6200028762000308565b600073ffffffffffffffffffffffffffffffffffffffff168173ffffffffffffffffffffffffffffffffffffffff161415620002fa576040517f08c379a0000000000000000000000000000000000000000000000000000000008152600401620002f1906200087f565b60405180910390fd5b62000305816200038d565b50565b6200031262000451565b73ffffffffffffffffffffffffffffffffffffffff16620003326200019b565b73ffffffffffffffffffffffffffffffffffffffff16146200038b576040517f08c379a00000000000000000000000000000000000000000000000000000000081526004016200038290620008f1565b60405180910390fd5b565b60008060009054906101000a900473ffffffffffffffffffffffffffffffffffffffff169050816000806101000a81548173ffffffffffffffffffffffffffffffffffffffff021916908373ffffffffffffffffffffffffffffffffffffffff1602179055508173ffffffffffffffffffffffffffffffffffffffff168173ffffffffffffffffffffffffffffffffffffffff167f8be0079c531659141344cd1fd0a4f28419497f9722a3daafe3b4186f6b6457e060405160405180910390a35050565b600033905090565b615501806200091483390190565b600081519050919050565b600082825260208201905092915050565b6000819050602082019050919050565b600073ffffffffffffffffffffffffffffffffffffffff82169050919050565b6000620004c08262000493565b9050919050565b620004d281620004b3565b82525050565b6000620004e68383620004c7565b60208301905092915050565b6000602082019050919050565b60006200050c8262000467565b62000518818562000472565b9350620005258362000483565b8060005b838110156200055c578151620005408882620004d8565b97506200054d83620004f2565b92505060018101905062000529565b5085935050505092915050565b60006020820190508181036000830152620005858184620004ff565b905092915050565b6200059881620004b3565b82525050565b6000602082019050620005b560008301846200058d565b92915050565b600080fd5b60006fffffffffffffffffffffffffffffffff82169050919050565b620005e781620005c0565b8114620005f357600080fd5b50565b6000813590506200060781620005dc565b92915050565b60006200061a8262000493565b9050919050565b6200062c816200060d565b81146200063857600080fd5b50565b6000813590506200064c8162000621565b92915050565b6200065d81620004b3565b81146200066957600080fd5b50565b6000813590506200067d8162000652565b92915050565b600063ffffffff82169050919050565b6200069e8162000683565b8114620006aa57600080fd5b50565b600081359050620006be8162000693565b92915050565b60008060008060808587031215620006e157620006e0620005bb565b5b6000620006f187828801620005f6565b945050602062000704878288016200063b565b935050604062000717878288016200066c565b92505060606200072a87828801620006ad565b91505092959194509250565b6000602082840312156200074f576200074e620005bb565b5b60006200075f848285016200066c565b91505092915050565b6200077381620005c0565b82525050565b62000784816200060d565b82525050565b620007958162000683565b82525050565b600060a082019050620007b2600083018862000768565b620007c1602083018762000779565b620007d060408301866200058d565b620007df60608301856200078a565b620007ee608083018462000779565b9695505050505050565b600082825260208201905092915050565b7f4f776e61626c653a206e6577206f776e657220697320746865207a65726f206160008201527f6464726573730000000000000000000000000000000000000000000000000000602082015250565b600062000867602683620007f8565b9150620008748262000809565b604082019050919050565b600060208201905081810360008301526200089a8162000858565b9050919050565b7f4f776e61626c653a2063616c6c6572206973206e6f7420746865206f776e6572600082015250565b6000620008d9602083620007f8565b9150620008e682620008a1565b602082019050919050565b600060208201905081810360008301526200090c81620008ca565b905091905056fe60806040523480156200001157600080fd5b506040516200550138038062005501833981810160405281019062000037919062000642565b6040518060400160405280601581526020017f696e5468656f7279205265736561726368204e465400000000000000000000008152506040518060400160405280600681526020017f5448454f525900000000000000000000000000000000000000000000000000008152508160009080519060200190620000bb92919062000455565b508060019080519060200190620000d492919062000455565b505050620000f7620000eb6200023560201b60201c565b6200023d60201b60201c565b82601260006101000a81548173ffffffffffffffffffffffffffffffffffffffff021916908373ffffffffffffffffffffffffffffffffffffffff16021790555084600d60046101000a8154816fffffffffffffffffffffffffffffffff02191690836fffffffffffffffffffffffffffffffff16021790555081600d60006101000a81548163ffffffff021916908363ffffffff16021790555083601060006101000a81548173ffffffffffffffffffffffffffffffffffffffff021916908373ffffffffffffffffffffffffffffffffffffffff16021790555080601160006101000a81548173ffffffffffffffffffffffffffffffffffffffff021916908373ffffffffffffffffffffffffffffffffffffffff1602179055506200022a816200030360201b62001aae1760201c565b50505050506200084a565b600033905090565b6000600b60009054906101000a900473ffffffffffffffffffffffffffffffffffffffff16905081600b60006101000a81548173ffffffffffffffffffffffffffffffffffffffff021916908373ffffffffffffffffffffffffffffffffffffffff1602179055508173ffffffffffffffffffffffffffffffffffffffff168173ffffffffffffffffffffffffffffffffffffffff167f8be0079c531659141344cd1fd0a4f28419497f9722a3daafe3b4186f6b6457e060405160405180910390a35050565b620003136200039a60201b60201c565b600073ffffffffffffffffffffffffffffffffffffffff168173ffffffffffffffffffffffffffffffffffffffff16141562000386576040517f08c379a00000000000000000000000000000000000000000000000000000000081526004016200037d9062000751565b60405180910390fd5b62000397816200023d60201b60201c565b50565b620003aa6200023560201b60201c565b73ffffffffffffffffffffffffffffffffffffffff16620003d06200042b60201b60201c565b73ffffffffffffffffffffffffffffffffffffffff161462000429576040517f08c379a00000000000000000000000000000000000000000000000000000000081526004016200042090620007c3565b60405180910390fd5b565b6000600b60009054906101000a900473ffffffffffffffffffffffffffffffffffffffff16905090565b828054620004639062000814565b90600052602060002090601f016020900481019282620004875760008555620004d3565b82601f10620004a257805160ff1916838001178555620004d3565b82800160010185558215620004d3579182015b82811115620004d2578251825591602001919060010190620004b5565b5b509050620004e29190620004e6565b5090565b5b8082111562000501576000816000905550600101620004e7565b5090565b600080fd5b60006fffffffffffffffffffffffffffffffff82169050919050565b62000531816200050a565b81146200053d57600080fd5b50565b600081519050620005518162000526565b92915050565b600073ffffffffffffffffffffffffffffffffffffffff82169050919050565b6000620005848262000557565b9050919050565b620005968162000577565b8114620005a257600080fd5b50565b600081519050620005b6816200058b565b92915050565b6000620005c98262000557565b9050919050565b620005db81620005bc565b8114620005e757600080fd5b50565b600081519050620005fb81620005d0565b92915050565b600063ffffffff82169050919050565b6200061c8162000601565b81146200062857600080fd5b50565b6000815190506200063c8162000611565b92915050565b600080600080600060a0868803121562000661576200066062000505565b5b6000620006718882890162000540565b95505060206200068488828901620005a5565b94505060406200069788828901620005ea565b9350506060620006aa888289016200062b565b9250506080620006bd88828901620005a5565b9150509295509295909350565b600082825260208201905092915050565b7f4f776e61626c653a206e6577206f776e657220697320746865207a65726f206160008201527f6464726573730000000000000000000000000000000000000000000000000000602082015250565b600062000739602683620006ca565b91506200074682620006db565b604082019050919050565b600060208201905081810360008301526200076c816200072a565b9050919050565b7f4f776e61626c653a2063616c6c6572206973206e6f7420746865206f776e6572600082015250565b6000620007ab602083620006ca565b9150620007b88262000773565b602082019050919050565b60006020820190508181036000830152620007de816200079c565b9050919050565b7f4e487b7100000000000000000000000000000000000000000000000000000000600052602260045260246000fd5b600060028204905060018216806200082d57607f821691505b60208210811415620008445762000843620007e5565b5b50919050565b614ca7806200085a6000396000f3fe608060405234801561001057600080fd5b506004361061021c5760003560e01c806370a0823111610125578063b451b004116100ad578063e18caccd1161007c578063e18caccd146105f1578063e7315f991461060d578063e985e9c51461063d578063f2f49c401461066d578063f2fde38b1461068b5761021c565b8063b451b0041461057d578063b88d4fde1461059b578063c87b56dd146105b7578063d294f093146105e75761021c565b80638da5cb5b116100f45780638da5cb5b146104eb5780639245290d1461050957806395d89b4114610525578063a22cb46514610543578063a8d1099d1461055f5761021c565b806370a0823114610477578063715018a6146104a757806371be121d146104b15780637bef4f54146104cd5761021c565b80632f745c59116101a857806351d418681161017757806351d41868146103d557806351f890ea146103f1578063603c24d71461040f5780636352211e1461042b5780636f5880c81461045b5761021c565b80632f745c591461033b57806342842e0e1461036b57806342db2203146103875780634f6ccce7146103a55761021c565b806311efbf61116101ef57806311efbf61146102bb57806312fde4b7146102d957806314ec993d146102f757806318160ddd1461030157806323b872dd1461031f5761021c565b806301ffc9a71461022157806306fdde0314610251578063081812fc1461026f578063095ea7b31461029f575b600080fd5b61023b600480360381019061023691906132de565b6106a7565b6040516102489190613326565b60405180910390f35b6102596106b9565b60405161026691906133da565b60405180910390f35b61028960048036038101906102849190613432565b61074b565b60405161029691906134a0565b60405180910390f35b6102b960048036038101906102b491906134e7565b610791565b005b6102c36108a9565b6040516102d09190613546565b60405180910390f35b6102e16108c3565b6040516102ee91906134a0565b60405180910390f35b6102ff6108ed565b005b610309610b05565b6040516103169190613570565b60405180910390f35b6103396004803603810190610334919061358b565b610b12565b005b610355600480360381019061035091906134e7565b610b72565b6040516103629190613570565b60405180910390f35b6103856004803603810190610380919061358b565b610c17565b005b61038f610c37565b60405161039c91906134a0565b60405180910390f35b6103bf60048036038101906103ba9190613432565b610c61565b6040516103cc9190613570565b60405180910390f35b6103ef60048036038101906103ea9190613626565b610cd2565b005b6103f9610d16565b6040516104069190613711565b60405180910390f35b61042960048036038101906104249190613771565b610da4565b005b61044560048036038101906104409190613432565b610df0565b60405161045291906134a0565b60405180910390f35b6104756004803603810190610470919061379e565b610e77565b005b610491600480360381019061048c919061379e565b610ec3565b60405161049e9190613570565b60405180910390f35b6104af610f7b565b005b6104cb60048036038101906104c691906137f7565b610f8f565b005b6104d5611005565b6040516104e291906134a0565b60405180910390f35b6104f361102f565b60405161050091906134a0565b60405180910390f35b610523600480360381019061051e9190613771565b611059565b005b61052d6110a5565b60405161053a91906133da565b60405180910390f35b61055d60048036038101906105589190613850565b611137565b005b61056761114d565b604051610574919061389f565b60405180910390f35b610585611173565b6040516105929190613570565b60405180910390f35b6105b560048036038101906105b091906139ef565b61117d565b005b6105d160048036038101906105cc9190613432565b6111df565b6040516105de91906133da565b60405180910390f35b6105ef6111f1565b005b61060b60048036038101906106069190613a72565b611409565b005b61062760048036038101906106229190613aff565b61165e565b6040516106349190613570565b60405180910390f35b61065760048036038101906106529190613b5f565b611a10565b6040516106649190613326565b60405180910390f35b610675611aa4565b6040516106829190613570565b60405180910390f35b6106a560048036038101906106a0919061379e565b611aae565b005b60006106b282611b32565b9050919050565b6060600080546106c890613bce565b80601f01602080910402602001604051908101604052809291908181526020018280546106f490613bce565b80156107415780601f1061071657610100808354040283529160200191610741565b820191906000526020600020905b81548152906001019060200180831161072457829003601f168201915b5050505050905090565b600061075682611bac565b6004600083815260200190815260200160002060009054906101000a900473ffffffffffffffffffffffffffffffffffffffff169050919050565b600061079c82610df0565b90508073ffffffffffffffffffffffffffffffffffffffff168373ffffffffffffffffffffffffffffffffffffffff16141561080d576040517f08c379a000000000000000000000000000000000000000000000000000000000815260040161080490613c72565b60405180910390fd5b8073ffffffffffffffffffffffffffffffffffffffff1661082c611bf7565b73ffffffffffffffffffffffffffffffffffffffff16148061085b575061085a81610855611bf7565b611a10565b5b61089a576040517f08c379a000000000000000000000000000000000000000000000000000000000815260040161089190613d04565b60405180910390fd5b6108a48383611bff565b505050565b6000600d60009054906101000a900463ffffffff16905090565b6000601160009054906101000a900473ffffffffffffffffffffffffffffffffffffffff16905090565b6108f5611cb8565b6000600f541161093a576040517f08c379a000000000000000000000000000000000000000000000000000000000815260040161093190613d70565b60405180910390fd5b600f54601260009054906101000a900473ffffffffffffffffffffffffffffffffffffffff1673ffffffffffffffffffffffffffffffffffffffff166370a08231306040518263ffffffff1660e01b815260040161099891906134a0565b60206040518083038186803b1580156109b057600080fd5b505afa1580156109c4573d6000803e3d6000fd5b505050506040513d601f19601f820116820180604052508101906109e89190613da5565b1015610a29576040517f08c379a0000000000000000000000000000000000000000000000000000000008152600401610a2090613e44565b60405180910390fd5b601260009054906101000a900473ffffffffffffffffffffffffffffffffffffffff1673ffffffffffffffffffffffffffffffffffffffff1663a9059cbb601060009054906101000a900473ffffffffffffffffffffffffffffffffffffffff16600f546040518363ffffffff1660e01b8152600401610aaa929190613ec3565b602060405180830381600087803b158015610ac457600080fd5b505af1158015610ad8573d6000803e3d6000fd5b505050506040513d601f19601f82011682018060405250810190610afc9190613f01565b50600f60009055565b6000600980549050905090565b610b23610b1d611bf7565b82611d36565b610b62576040517f08c379a0000000000000000000000000000000000000000000000000000000008152600401610b5990613fa0565b60405180910390fd5b610b6d838383611dcb565b505050565b6000610b7d83610ec3565b8210610bbe576040517f08c379a0000000000000000000000000000000000000000000000000000000008152600401610bb590614032565b60405180910390fd5b600760008473ffffffffffffffffffffffffffffffffffffffff1673ffffffffffffffffffffffffffffffffffffffff168152602001908152602001600020600083815260200190815260200160002054905092915050565b610c328383836040518060200160405280600081525061117d565b505050565b6000601060009054906101000a900473ffffffffffffffffffffffffffffffffffffffff16905090565b6000610c6b610b05565b8210610cac576040517f08c379a0000000000000000000000000000000000000000000000000000000008152600401610ca3906140c4565b60405180910390fd5b60098281548110610cc057610cbf6140e4565b5b90600052602060002001549050919050565b610cda611cb8565b80600d60046101000a8154816fffffffffffffffffffffffffffffffff02191690836fffffffffffffffffffffffffffffffff16021790555050565b60606013805480602002602001604051908101604052809291908181526020018280548015610d9a57602002820191906000526020600020905b8160009054906101000a900473ffffffffffffffffffffffffffffffffffffffff1673ffffffffffffffffffffffffffffffffffffffff1681526020019060010190808311610d50575b5050505050905090565b610dac611cb8565b80601060006101000a81548173ffffffffffffffffffffffffffffffffffffffff021916908373ffffffffffffffffffffffffffffffffffffffff16021790555050565b600080610dfc836120c5565b9050600073ffffffffffffffffffffffffffffffffffffffff168173ffffffffffffffffffffffffffffffffffffffff161415610e6e576040517f08c379a0000000000000000000000000000000000000000000000000000000008152600401610e659061415f565b60405180910390fd5b80915050919050565b610e7f611cb8565b80601260006101000a81548173ffffffffffffffffffffffffffffffffffffffff021916908373ffffffffffffffffffffffffffffffffffffffff16021790555050565b60008073ffffffffffffffffffffffffffffffffffffffff168273ffffffffffffffffffffffffffffffffffffffff161415610f34576040517f08c379a0000000000000000000000000000000000000000000000000000000008152600401610f2b906141f1565b60405180910390fd5b600360008373ffffffffffffffffffffffffffffffffffffffff1673ffffffffffffffffffffffffffffffffffffffff168152602001908152602001600020549050919050565b610f83611cb8565b610f8d6000612102565b565b610f97611cb8565b60648163ffffffff161115610fe1576040517f08c379a0000000000000000000000000000000000000000000000000000000008152600401610fd89061425d565b60405180910390fd5b80600d60006101000a81548163ffffffff021916908363ffffffff16021790555050565b6000601260009054906101000a900473ffffffffffffffffffffffffffffffffffffffff16905090565b6000600b60009054906101000a900473ffffffffffffffffffffffffffffffffffffffff16905090565b611061611cb8565b80601160006101000a81548173ffffffffffffffffffffffffffffffffffffffff021916908373ffffffffffffffffffffffffffffffffffffffff16021790555050565b6060600180546110b490613bce565b80601f01602080910402602001604051908101604052809291908181526020018280546110e090613bce565b801561112d5780601f106111025761010080835404028352916020019161112d565b820191906000526020600020905b81548152906001019060200180831161111057829003601f168201915b5050505050905090565b611149611142611bf7565b83836121c8565b5050565b6000600d60049054906101000a90046fffffffffffffffffffffffffffffffff16905090565b6000600f54905090565b61118e611188611bf7565b83611d36565b6111cd576040517f08c379a00000000000000000000000000000000000000000000000000000000081526004016111c490613fa0565b60405180910390fd5b6111d984848484612335565b50505050565b60606111ea82612391565b9050919050565b6111f9611cb8565b6000600e541161123e576040517f08c379a0000000000000000000000000000000000000000000000000000000008152600401611235906142c9565b60405180910390fd5b600e54601260009054906101000a900473ffffffffffffffffffffffffffffffffffffffff1673ffffffffffffffffffffffffffffffffffffffff166370a08231306040518263ffffffff1660e01b815260040161129c91906134a0565b60206040518083038186803b1580156112b457600080fd5b505afa1580156112c8573d6000803e3d6000fd5b505050506040513d601f19601f820116820180604052508101906112ec9190613da5565b101561132d576040517f08c379a000000000000000000000000000000000000000000000000000000000815260040161132490613e44565b60405180910390fd5b601260009054906101000a900473ffffffffffffffffffffffffffffffffffffffff1673ffffffffffffffffffffffffffffffffffffffff1663a9059cbb601160009054906101000a900473ffffffffffffffffffffffffffffffffffffffff16600e546040518363ffffffff1660e01b81526004016113ae929190613ec3565b602060405180830381600087803b1580156113c857600080fd5b505af11580156113dc573d6000803e3d6000fd5b505050506040513d601f19601f820116820180604052508101906114009190613f01565b50600e60009055565b611411611cb8565b6000601260009054906101000a900473ffffffffffffffffffffffffffffffffffffffff1673ffffffffffffffffffffffffffffffffffffffff166370a08231306040518263ffffffff1660e01b815260040161146e91906134a0565b60206040518083038186803b15801561148657600080fd5b505afa15801561149a573d6000803e3d6000fd5b505050506040513d601f19601f820116820180604052508101906114be9190613da5565b116114c857600080fd5b601260009054906101000a900473ffffffffffffffffffffffffffffffffffffffff1673ffffffffffffffffffffffffffffffffffffffff1663a9059cbb601160009054906101000a900473ffffffffffffffffffffffffffffffffffffffff16601260009054906101000a900473ffffffffffffffffffffffffffffffffffffffff1673ffffffffffffffffffffffffffffffffffffffff166370a08231306040518263ffffffff1660e01b815260040161158491906134a0565b60206040518083038186803b15801561159c57600080fd5b505afa1580156115b0573d6000803e3d6000fd5b505050506040513d601f19601f820116820180604052508101906115d49190613da5565b6040518363ffffffff1660e01b81526004016115f1929190613ec3565b602060405180830381600087803b15801561160b57600080fd5b505af115801561161f573d6000803e3d6000fd5b505050506040513d601f19601f820116820180604052508101906116439190613f01565b50801561165b576000600e819055506000600f819055505b50565b6000600d60049054906101000a90046fffffffffffffffffffffffffffffffff166fffffffffffffffffffffffffffffffff168410156116d3576040517f08c379a00000000000000000000000000000000000000000000000000000000081526004016116ca9061435b565b60405180910390fd5b6000601260009054906101000a900473ffffffffffffffffffffffffffffffffffffffff1673ffffffffffffffffffffffffffffffffffffffff1663dd62ed3e33306040518363ffffffff1660e01b815260040161173292919061437b565b60206040518083038186803b15801561174a57600080fd5b505afa15801561175e573d6000803e3d6000fd5b505050506040513d601f19601f820116820180604052508101906117829190613da5565b9050848110156117c7576040517f08c379a00000000000000000000000000000000000000000000000000000000081526004016117be906143f0565b60405180910390fd5b601260009054906101000a900473ffffffffffffffffffffffffffffffffffffffff1673ffffffffffffffffffffffffffffffffffffffff166323b872dd3330886040518463ffffffff1660e01b815260040161182693929190614410565b602060405180830381600087803b15801561184057600080fd5b505af1158015611854573d6000803e3d6000fd5b505050506040513d601f19601f820116820180604052508101906118789190613f01565b506000611885600c6124a4565b905060006064600d60009054906101000a900463ffffffff1663ffffffff16886118af9190614476565b6118b991906144ff565b90506118c533836124b2565b6119138287878080601f016020809104026020016040519081016040528093929190818152602001838380828437600081840152601f19601f820116905080830192505050505050506126d0565b80600e546119219190614530565b600e8190555080876119339190614586565b600f546119409190614530565b600f819055506013339080600181540180825580915050600190039060005260206000200160009091909190916101000a81548173ffffffffffffffffffffffffffffffffffffffff021916908373ffffffffffffffffffffffffffffffffffffffff1602179055506119b3600c612744565b3373ffffffffffffffffffffffffffffffffffffffff167fd2dff949d20e874cc6ba1dcefb840fb8cf6000a4197bfb69accfea5a32443ff588846040516119fb9291906145ba565b60405180910390a28193505050509392505050565b6000600560008473ffffffffffffffffffffffffffffffffffffffff1673ffffffffffffffffffffffffffffffffffffffff16815260200190815260200160002060008373ffffffffffffffffffffffffffffffffffffffff1673ffffffffffffffffffffffffffffffffffffffff16815260200190815260200160002060009054906101000a900460ff16905092915050565b6000600e54905090565b611ab6611cb8565b600073ffffffffffffffffffffffffffffffffffffffff168173ffffffffffffffffffffffffffffffffffffffff161415611b26576040517f08c379a0000000000000000000000000000000000000000000000000000000008152600401611b1d90614655565b60405180910390fd5b611b2f81612102565b50565b60007f780e9d63000000000000000000000000000000000000000000000000000000007bffffffffffffffffffffffffffffffffffffffffffffffffffffffff1916827bffffffffffffffffffffffffffffffffffffffffffffffffffffffff19161480611ba55750611ba48261275a565b5b9050919050565b611bb58161283c565b611bf4576040517f08c379a0000000000000000000000000000000000000000000000000000000008152600401611beb9061415f565b60405180910390fd5b50565b600033905090565b816004600083815260200190815260200160002060006101000a81548173ffffffffffffffffffffffffffffffffffffffff021916908373ffffffffffffffffffffffffffffffffffffffff160217905550808273ffffffffffffffffffffffffffffffffffffffff16611c7283610df0565b73ffffffffffffffffffffffffffffffffffffffff167f8c5be1e5ebec7d5bd14f71427d1e84f3dd0314c0f7b2291e5b200ac8c7c3b92560405160405180910390a45050565b611cc0611bf7565b73ffffffffffffffffffffffffffffffffffffffff16611cde61102f565b73ffffffffffffffffffffffffffffffffffffffff1614611d34576040517f08c379a0000000000000000000000000000000000000000000000000000000008152600401611d2b906146c1565b60405180910390fd5b565b600080611d4283610df0565b90508073ffffffffffffffffffffffffffffffffffffffff168473ffffffffffffffffffffffffffffffffffffffff161480611d845750611d838185611a10565b5b80611dc257508373ffffffffffffffffffffffffffffffffffffffff16611daa8461074b565b73ffffffffffffffffffffffffffffffffffffffff16145b91505092915050565b8273ffffffffffffffffffffffffffffffffffffffff16611deb82610df0565b73ffffffffffffffffffffffffffffffffffffffff1614611e41576040517f08c379a0000000000000000000000000000000000000000000000000000000008152600401611e3890614753565b60405180910390fd5b600073ffffffffffffffffffffffffffffffffffffffff168273ffffffffffffffffffffffffffffffffffffffff161415611eb1576040517f08c379a0000000000000000000000000000000000000000000000000000000008152600401611ea8906147e5565b60405180910390fd5b611ebe838383600161287d565b8273ffffffffffffffffffffffffffffffffffffffff16611ede82610df0565b73ffffffffffffffffffffffffffffffffffffffff1614611f34576040517f08c379a0000000000000000000000000000000000000000000000000000000008152600401611f2b90614753565b60405180910390fd5b6004600082815260200190815260200160002060006101000a81549073ffffffffffffffffffffffffffffffffffffffff02191690556001600360008573ffffffffffffffffffffffffffffffffffffffff1673ffffffffffffffffffffffffffffffffffffffff168152602001908152602001600020600082825403925050819055506001600360008473ffffffffffffffffffffffffffffffffffffffff1673ffffffffffffffffffffffffffffffffffffffff16815260200190815260200160002060008282540192505081905550816002600083815260200190815260200160002060006101000a81548173ffffffffffffffffffffffffffffffffffffffff021916908373ffffffffffffffffffffffffffffffffffffffff160217905550808273ffffffffffffffffffffffffffffffffffffffff168473ffffffffffffffffffffffffffffffffffffffff167fddf252ad1be2c89b69c2b068fc378daa952ba7f163c4a11628f55a4df523b3ef60405160405180910390a46120c0838383600161288f565b505050565b60006002600083815260200190815260200160002060009054906101000a900473ffffffffffffffffffffffffffffffffffffffff169050919050565b6000600b60009054906101000a900473ffffffffffffffffffffffffffffffffffffffff16905081600b60006101000a81548173ffffffffffffffffffffffffffffffffffffffff021916908373ffffffffffffffffffffffffffffffffffffffff1602179055508173ffffffffffffffffffffffffffffffffffffffff168173ffffffffffffffffffffffffffffffffffffffff167f8be0079c531659141344cd1fd0a4f28419497f9722a3daafe3b4186f6b6457e060405160405180910390a35050565b8173ffffffffffffffffffffffffffffffffffffffff168373ffffffffffffffffffffffffffffffffffffffff161415612237576040517f08c379a000000000000000000000000000000000000000000000000000000000815260040161222e90614851565b60405180910390fd5b80600560008573ffffffffffffffffffffffffffffffffffffffff1673ffffffffffffffffffffffffffffffffffffffff16815260200190815260200160002060008473ffffffffffffffffffffffffffffffffffffffff1673ffffffffffffffffffffffffffffffffffffffff16815260200190815260200160002060006101000a81548160ff0219169083151502179055508173ffffffffffffffffffffffffffffffffffffffff168373ffffffffffffffffffffffffffffffffffffffff167f17307eab39ab6107e8899845ad3d59bd9653f200f220920489ca2b5937696c31836040516123289190613326565b60405180910390a3505050565b612340848484611dcb565b61234c84848484612895565b61238b576040517f08c379a0000000000000000000000000000000000000000000000000000000008152600401612382906148e3565b60405180910390fd5b50505050565b606061239c82611bac565b60006006600084815260200190815260200160002080546123bc90613bce565b80601f01602080910402602001604051908101604052809291908181526020018280546123e890613bce565b80156124355780601f1061240a57610100808354040283529160200191612435565b820191906000526020600020905b81548152906001019060200180831161241857829003601f168201915b505050505090506000612446612a2c565b905060008151141561245c57819250505061249f565b60008251111561249157808260405160200161247992919061493f565b6040516020818303038152906040529250505061249f565b61249a84612a43565b925050505b919050565b600081600001549050919050565b600073ffffffffffffffffffffffffffffffffffffffff168273ffffffffffffffffffffffffffffffffffffffff161415612522576040517f08c379a0000000000000000000000000000000000000000000000000000000008152600401612519906149af565b60405180910390fd5b61252b8161283c565b1561256b576040517f08c379a000000000000000000000000000000000000000000000000000000000815260040161256290614a1b565b60405180910390fd5b61257960008383600161287d565b6125828161283c565b156125c2576040517f08c379a00000000000000000000000000000000000000000000000000000000081526004016125b990614a1b565b60405180910390fd5b6001600360008473ffffffffffffffffffffffffffffffffffffffff1673ffffffffffffffffffffffffffffffffffffffff16815260200190815260200160002060008282540192505081905550816002600083815260200190815260200160002060006101000a81548173ffffffffffffffffffffffffffffffffffffffff021916908373ffffffffffffffffffffffffffffffffffffffff160217905550808273ffffffffffffffffffffffffffffffffffffffff16600073ffffffffffffffffffffffffffffffffffffffff167fddf252ad1be2c89b69c2b068fc378daa952ba7f163c4a11628f55a4df523b3ef60405160405180910390a46126cc60008383600161288f565b5050565b6126d98261283c565b612718576040517f08c379a000000000000000000000000000000000000000000000000000000000815260040161270f90614aad565b60405180910390fd5b8060066000848152602001908152602001600020908051906020019061273f9291906131cf565b505050565b6001816000016000828254019250508190555050565b60007f80ac58cd000000000000000000000000000000000000000000000000000000007bffffffffffffffffffffffffffffffffffffffffffffffffffffffff1916827bffffffffffffffffffffffffffffffffffffffffffffffffffffffff1916148061282557507f5b5e139f000000000000000000000000000000000000000000000000000000007bffffffffffffffffffffffffffffffffffffffffffffffffffffffff1916827bffffffffffffffffffffffffffffffffffffffffffffffffffffffff1916145b80612835575061283482612aab565b5b9050919050565b60008073ffffffffffffffffffffffffffffffffffffffff1661285e836120c5565b73ffffffffffffffffffffffffffffffffffffffff1614159050919050565b61288984848484612b15565b50505050565b50505050565b60006128b68473ffffffffffffffffffffffffffffffffffffffff16612c75565b15612a1f578373ffffffffffffffffffffffffffffffffffffffff1663150b7a026128df611bf7565b8786866040518563ffffffff1660e01b81526004016129019493929190614b22565b602060405180830381600087803b15801561291b57600080fd5b505af192505050801561294c57506040513d601f19601f820116820180604052508101906129499190614b83565b60015b6129cf573d806000811461297c576040519150601f19603f3d011682016040523d82523d6000602084013e612981565b606091505b506000815114156129c7576040517f08c379a00000000000000000000000000000000000000000000000000000000081526004016129be906148e3565b60405180910390fd5b805181602001fd5b63150b7a0260e01b7bffffffffffffffffffffffffffffffffffffffffffffffffffffffff1916817bffffffffffffffffffffffffffffffffffffffffffffffffffffffff191614915050612a24565b600190505b949350505050565b606060405180602001604052806000815250905090565b6060612a4e82611bac565b6000612a58612a2c565b90506000815111612a785760405180602001604052806000815250612aa3565b80612a8284612c98565b604051602001612a9392919061493f565b6040516020818303038152906040525b915050919050565b60007f01ffc9a7000000000000000000000000000000000000000000000000000000007bffffffffffffffffffffffffffffffffffffffffffffffffffffffff1916827bffffffffffffffffffffffffffffffffffffffffffffffffffffffff1916149050919050565b612b2184848484612d70565b6001811115612b65576040517f08c379a0000000000000000000000000000000000000000000000000000000008152600401612b5c90614c22565b60405180910390fd5b6000829050600073ffffffffffffffffffffffffffffffffffffffff168573ffffffffffffffffffffffffffffffffffffffff161415612bad57612ba881612d76565b612bec565b8373ffffffffffffffffffffffffffffffffffffffff168573ffffffffffffffffffffffffffffffffffffffff1614612beb57612bea8582612dbf565b5b5b600073ffffffffffffffffffffffffffffffffffffffff168473ffffffffffffffffffffffffffffffffffffffff161415612c2f57612c2a81612f2c565b612c6e565b8473ffffffffffffffffffffffffffffffffffffffff168473ffffffffffffffffffffffffffffffffffffffff1614612c6d57612c6c8482612ffd565b5b5b5050505050565b6000808273ffffffffffffffffffffffffffffffffffffffff163b119050919050565b606060006001612ca78461307c565b01905060008167ffffffffffffffff811115612cc657612cc56138c4565b5b6040519080825280601f01601f191660200182016040528015612cf85781602001600182028036833780820191505090505b509050600082602001820190505b600115612d65578080600190039150507f3031323334353637383961626364656600000000000000000000000000000000600a86061a8153600a8581612d4f57612d4e6144d0565b5b0494506000851415612d6057612d65565b612d06565b819350505050919050565b50505050565b600980549050600a600083815260200190815260200160002081905550600981908060018154018082558091505060019003906000526020600020016000909190919091505550565b60006001612dcc84610ec3565b612dd69190614586565b9050600060086000848152602001908152602001600020549050818114612ebb576000600760008673ffffffffffffffffffffffffffffffffffffffff1673ffffffffffffffffffffffffffffffffffffffff168152602001908152602001600020600084815260200190815260200160002054905080600760008773ffffffffffffffffffffffffffffffffffffffff1673ffffffffffffffffffffffffffffffffffffffff168152602001908152602001600020600084815260200190815260200160002081905550816008600083815260200190815260200160002081905550505b6008600084815260200190815260200160002060009055600760008573ffffffffffffffffffffffffffffffffffffffff1673ffffffffffffffffffffffffffffffffffffffff16815260200190815260200160002060008381526020019081526020016000206000905550505050565b60006001600980549050612f409190614586565b90506000600a6000848152602001908152602001600020549050600060098381548110612f7057612f6f6140e4565b5b906000526020600020015490508060098381548110612f9257612f916140e4565b5b906000526020600020018190555081600a600083815260200190815260200160002081905550600a6000858152602001908152602001600020600090556009805480612fe157612fe0614c42565b5b6001900381819060005260206000200160009055905550505050565b600061300883610ec3565b905081600760008573ffffffffffffffffffffffffffffffffffffffff1673ffffffffffffffffffffffffffffffffffffffff168152602001908152602001600020600083815260200190815260200160002081905550806008600084815260200190815260200160002081905550505050565b600080600090507a184f03e93ff9f4daa797ed6e38ed64bf6a1f01000000000000000083106130da577a184f03e93ff9f4daa797ed6e38ed64bf6a1f01000000000000000083816130d0576130cf6144d0565b5b0492506040810190505b6d04ee2d6d415b85acef81000000008310613117576d04ee2d6d415b85acef8100000000838161310d5761310c6144d0565b5b0492506020810190505b662386f26fc10000831061314657662386f26fc10000838161313c5761313b6144d0565b5b0492506010810190505b6305f5e100831061316f576305f5e1008381613165576131646144d0565b5b0492506008810190505b612710831061319457612710838161318a576131896144d0565b5b0492506004810190505b606483106131b757606483816131ad576131ac6144d0565b5b0492506002810190505b600a83106131c6576001810190505b80915050919050565b8280546131db90613bce565b90600052602060002090601f0160209004810192826131fd5760008555613244565b82601f1061321657805160ff1916838001178555613244565b82800160010185558215613244579182015b82811115613243578251825591602001919060010190613228565b5b5090506132519190613255565b5090565b5b8082111561326e576000816000905550600101613256565b5090565b6000604051905090565b600080fd5b600080fd5b60007fffffffff0000000000000000000000000000000000000000000000000000000082169050919050565b6132bb81613286565b81146132c657600080fd5b50565b6000813590506132d8816132b2565b92915050565b6000602082840312156132f4576132f361327c565b5b6000613302848285016132c9565b91505092915050565b60008115159050919050565b6133208161330b565b82525050565b600060208201905061333b6000830184613317565b92915050565b600081519050919050565b600082825260208201905092915050565b60005b8381101561337b578082015181840152602081019050613360565b8381111561338a576000848401525b50505050565b6000601f19601f8301169050919050565b60006133ac82613341565b6133b6818561334c565b93506133c681856020860161335d565b6133cf81613390565b840191505092915050565b600060208201905081810360008301526133f481846133a1565b905092915050565b6000819050919050565b61340f816133fc565b811461341a57600080fd5b50565b60008135905061342c81613406565b92915050565b6000602082840312156134485761344761327c565b5b60006134568482850161341d565b91505092915050565b600073ffffffffffffffffffffffffffffffffffffffff82169050919050565b600061348a8261345f565b9050919050565b61349a8161347f565b82525050565b60006020820190506134b56000830184613491565b92915050565b6134c48161347f565b81146134cf57600080fd5b50565b6000813590506134e1816134bb565b92915050565b600080604083850312156134fe576134fd61327c565b5b600061350c858286016134d2565b925050602061351d8582860161341d565b9150509250929050565b600063ffffffff82169050919050565b61354081613527565b82525050565b600060208201905061355b6000830184613537565b92915050565b61356a816133fc565b82525050565b60006020820190506135856000830184613561565b92915050565b6000806000606084860312156135a4576135a361327c565b5b60006135b2868287016134d2565b93505060206135c3868287016134d2565b92505060406135d48682870161341d565b9150509250925092565b60006fffffffffffffffffffffffffffffffff82169050919050565b613603816135de565b811461360e57600080fd5b50565b600081359050613620816135fa565b92915050565b60006020828403121561363c5761363b61327c565b5b600061364a84828501613611565b91505092915050565b600081519050919050565b600082825260208201905092915050565b6000819050602082019050919050565b6136888161347f565b82525050565b600061369a838361367f565b60208301905092915050565b6000602082019050919050565b60006136be82613653565b6136c8818561365e565b93506136d38361366f565b8060005b838110156137045781516136eb888261368e565b97506136f6836136a6565b9250506001810190506136d7565b5085935050505092915050565b6000602082019050818103600083015261372b81846136b3565b905092915050565b600061373e8261345f565b9050919050565b61374e81613733565b811461375957600080fd5b50565b60008135905061376b81613745565b92915050565b6000602082840312156137875761378661327c565b5b60006137958482850161375c565b91505092915050565b6000602082840312156137b4576137b361327c565b5b60006137c2848285016134d2565b91505092915050565b6137d481613527565b81146137df57600080fd5b50565b6000813590506137f1816137cb565b92915050565b60006020828403121561380d5761380c61327c565b5b600061381b848285016137e2565b91505092915050565b61382d8161330b565b811461383857600080fd5b50565b60008135905061384a81613824565b92915050565b600080604083850312156138675761386661327c565b5b6000613875858286016134d2565b92505060206138868582860161383b565b9150509250929050565b613899816135de565b82525050565b60006020820190506138b46000830184613890565b92915050565b600080fd5b600080fd5b7f4e487b7100000000000000000000000000000000000000000000000000000000600052604160045260246000fd5b6138fc82613390565b810181811067ffffffffffffffff8211171561391b5761391a6138c4565b5b80604052505050565b600061392e613272565b905061393a82826138f3565b919050565b600067ffffffffffffffff82111561395a576139596138c4565b5b61396382613390565b9050602081019050919050565b82818337600083830152505050565b600061399261398d8461393f565b613924565b9050828152602081018484840111156139ae576139ad6138bf565b5b6139b9848285613970565b509392505050565b600082601f8301126139d6576139d56138ba565b5b81356139e684826020860161397f565b91505092915050565b60008060008060808587031215613a0957613a0861327c565b5b6000613a17878288016134d2565b9450506020613a28878288016134d2565b9350506040613a398782880161341d565b925050606085013567ffffffffffffffff811115613a5a57613a59613281565b5b613a66878288016139c1565b91505092959194509250565b600060208284031215613a8857613a8761327c565b5b6000613a968482850161383b565b91505092915050565b600080fd5b600080fd5b60008083601f840112613abf57613abe6138ba565b5b8235905067ffffffffffffffff811115613adc57613adb613a9f565b5b602083019150836001820283011115613af857613af7613aa4565b5b9250929050565b600080600060408486031215613b1857613b1761327c565b5b6000613b268682870161341d565b935050602084013567ffffffffffffffff811115613b4757613b46613281565b5b613b5386828701613aa9565b92509250509250925092565b60008060408385031215613b7657613b7561327c565b5b6000613b84858286016134d2565b9250506020613b95858286016134d2565b9150509250929050565b7f4e487b7100000000000000000000000000000000000000000000000000000000600052602260045260246000fd5b60006002820490506001821680613be657607f821691505b60208210811415613bfa57613bf9613b9f565b5b50919050565b7f4552433732313a20617070726f76616c20746f2063757272656e74206f776e6560008201527f7200000000000000000000000000000000000000000000000000000000000000602082015250565b6000613c5c60218361334c565b9150613c6782613c00565b604082019050919050565b60006020820190508181036000830152613c8b81613c4f565b9050919050565b7f4552433732313a20617070726f76652063616c6c6572206973206e6f7420746f60008201527f6b656e206f776e6572206f7220617070726f76656420666f7220616c6c000000602082015250565b6000613cee603d8361334c565b9150613cf982613c92565b604082019050919050565b60006020820190508181036000830152613d1d81613ce1565b9050919050565b7f4e6f20636f6e747269627574696f6e7320746f20636c61696d2e000000000000600082015250565b6000613d5a601a8361334c565b9150613d6582613d24565b602082019050919050565b60006020820190508181036000830152613d8981613d4d565b9050919050565b600081519050613d9f81613406565b92915050565b600060208284031215613dbb57613dba61327c565b5b6000613dc984828501613d90565b91505092915050565b7f496e73756666696369656e742062616c616e636520696e20636f6e747261637460008201527f2e00000000000000000000000000000000000000000000000000000000000000602082015250565b6000613e2e60218361334c565b9150613e3982613dd2565b604082019050919050565b60006020820190508181036000830152613e5d81613e21565b9050919050565b6000819050919050565b6000613e89613e84613e7f8461345f565b613e64565b61345f565b9050919050565b6000613e9b82613e6e565b9050919050565b6000613ead82613e90565b9050919050565b613ebd81613ea2565b82525050565b6000604082019050613ed86000830185613eb4565b613ee56020830184613561565b9392505050565b600081519050613efb81613824565b92915050565b600060208284031215613f1757613f1661327c565b5b6000613f2584828501613eec565b91505092915050565b7f4552433732313a2063616c6c6572206973206e6f7420746f6b656e206f776e6560008201527f72206f7220617070726f76656400000000000000000000000000000000000000602082015250565b6000613f8a602d8361334c565b9150613f9582613f2e565b604082019050919050565b60006020820190508181036000830152613fb981613f7d565b9050919050565b7f455243373231456e756d657261626c653a206f776e657220696e646578206f7560008201527f74206f6620626f756e6473000000000000000000000000000000000000000000602082015250565b600061401c602b8361334c565b915061402782613fc0565b604082019050919050565b6000602082019050818103600083015261404b8161400f565b9050919050565b7f455243373231456e756d657261626c653a20676c6f62616c20696e646578206f60008201527f7574206f6620626f756e64730000000000000000000000000000000000000000602082015250565b60006140ae602c8361334c565b91506140b982614052565b604082019050919050565b600060208201905081810360008301526140dd816140a1565b9050919050565b7f4e487b7100000000000000000000000000000000000000000000000000000000600052603260045260246000fd5b7f4552433732313a20696e76616c696420746f6b656e2049440000000000000000600082015250565b600061414960188361334c565b915061415482614113565b602082019050919050565b600060208201905081810360008301526141788161413c565b9050919050565b7f4552433732313a2061646472657373207a65726f206973206e6f74206120766160008201527f6c6964206f776e65720000000000000000000000000000000000000000000000602082015250565b60006141db60298361334c565b91506141e68261417f565b604082019050919050565b6000602082019050818103600083015261420a816141ce565b9050919050565b7f4665652070657263656e74616765206d757374206265203c3d20313030000000600082015250565b6000614247601d8361334c565b915061425282614211565b602082019050919050565b600060208201905081810360008301526142768161423a565b9050919050565b7f4e6f206665657320746f20636c61696d2e000000000000000000000000000000600082015250565b60006142b360118361334c565b91506142be8261427d565b602082019050919050565b600060208201905081810360008301526142e2816142a6565b9050919050565b7f436f6e747269627574696f6e2069732062656c6f77207468652072657175697260008201527f6564206d696e696d756d2e000000000000000000000000000000000000000000602082015250565b6000614345602b8361334c565b9150614350826142e9565b604082019050919050565b6000602082019050818103600083015261437481614338565b9050919050565b60006040820190506143906000830185613491565b61439d6020830184613491565b9392505050565b7f436865636b20746f6b656e20616c6c6f77616e63652e00000000000000000000600082015250565b60006143da60168361334c565b91506143e5826143a4565b602082019050919050565b60006020820190508181036000830152614409816143cd565b9050919050565b60006060820190506144256000830186613491565b6144326020830185613491565b61443f6040830184613561565b949350505050565b7f4e487b7100000000000000000000000000000000000000000000000000000000600052601160045260246000fd5b6000614481826133fc565b915061448c836133fc565b9250817fffffffffffffffffffffffffffffffffffffffffffffffffffffffffffffffff04831182151516156144c5576144c4614447565b5b828202905092915050565b7f4e487b7100000000000000000000000000000000000000000000000000000000600052601260045260246000fd5b600061450a826133fc565b9150614515836133fc565b925082614525576145246144d0565b5b828204905092915050565b600061453b826133fc565b9150614546836133fc565b9250827fffffffffffffffffffffffffffffffffffffffffffffffffffffffffffffffff0382111561457b5761457a614447565b5b828201905092915050565b6000614591826133fc565b915061459c836133fc565b9250828210156145af576145ae614447565b5b828203905092915050565b60006040820190506145cf6000830185613561565b6145dc6020830184613561565b9392505050565b7f4f776e61626c653a206e6577206f776e657220697320746865207a65726f206160008201527f6464726573730000000000000000000000000000000000000000000000000000602082015250565b600061463f60268361334c565b915061464a826145e3565b604082019050919050565b6000602082019050818103600083015261466e81614632565b9050919050565b7f4f776e61626c653a2063616c6c6572206973206e6f7420746865206f776e6572600082015250565b60006146ab60208361334c565b91506146b682614675565b602082019050919050565b600060208201905081810360008301526146da8161469e565b9050919050565b7f4552433732313a207472616e736665722066726f6d20696e636f72726563742060008201527f6f776e6572000000000000000000000000000000000000000000000000000000602082015250565b600061473d60258361334c565b9150614748826146e1565b604082019050919050565b6000602082019050818103600083015261476c81614730565b9050919050565b7f4552433732313a207472616e7366657220746f20746865207a65726f2061646460008201527f7265737300000000000000000000000000000000000000000000000000000000602082015250565b60006147cf60248361334c565b91506147da82614773565b604082019050919050565b600060208201905081810360008301526147fe816147c2565b9050919050565b7f4552433732313a20617070726f766520746f2063616c6c657200000000000000600082015250565b600061483b60198361334c565b915061484682614805565b602082019050919050565b6000602082019050818103600083015261486a8161482e565b9050919050565b7f4552433732313a207472616e7366657220746f206e6f6e20455243373231526560008201527f63656976657220696d706c656d656e7465720000000000000000000000000000602082015250565b60006148cd60328361334c565b91506148d882614871565b604082019050919050565b600060208201905081810360008301526148fc816148c0565b9050919050565b600081905092915050565b600061491982613341565b6149238185614903565b935061493381856020860161335d565b80840191505092915050565b600061494b828561490e565b9150614957828461490e565b91508190509392505050565b7f4552433732313a206d696e7420746f20746865207a65726f2061646472657373600082015250565b600061499960208361334c565b91506149a482614963565b602082019050919050565b600060208201905081810360008301526149c88161498c565b9050919050565b7f4552433732313a20746f6b656e20616c7265616479206d696e74656400000000600082015250565b6000614a05601c8361334c565b9150614a10826149cf565b602082019050919050565b60006020820190508181036000830152614a34816149f8565b9050919050565b7f45524337323155524953746f726167653a2055524920736574206f66206e6f6e60008201527f6578697374656e7420746f6b656e000000000000000000000000000000000000602082015250565b6000614a97602e8361334c565b9150614aa282614a3b565b604082019050919050565b60006020820190508181036000830152614ac681614a8a565b9050919050565b600081519050919050565b600082825260208201905092915050565b6000614af482614acd565b614afe8185614ad8565b9350614b0e81856020860161335d565b614b1781613390565b840191505092915050565b6000608082019050614b376000830187613491565b614b446020830186613491565b614b516040830185613561565b8181036060830152614b638184614ae9565b905095945050505050565b600081519050614b7d816132b2565b92915050565b600060208284031215614b9957614b9861327c565b5b6000614ba784828501614b6e565b91505092915050565b7f455243373231456e756d657261626c653a20636f6e736563757469766520747260008201527f616e7366657273206e6f7420737570706f727465640000000000000000000000602082015250565b6000614c0c60358361334c565b9150614c1782614bb0565b604082019050919050565b60006020820190508181036000830152614c3b81614bff565b9050919050565b7f4e487b7100000000000000000000000000000000000000000000000000000000600052603160045260246000fdfea264697066735822122031ffd5783a7ff035c90dc6fcb8bd23843e8c2b27e3329a7b9d8fe5fbc79f56c164736f6c63430008090033a2646970667358221220792cc212ae7af076cb8386074d96cd274fce1d25e6304895a193345abd69ad6064736f6c63430008090033",
  "immutableReferences": {},
  "source": "// SPDX-License-Identifier: MIT\n\npragma solidity ^0.8.9;\n\nimport \"@openzeppelin/contracts/token/ERC20/IERC20.sol\";\nimport \"@openzeppelin/contracts/token/ERC721/ERC721.sol\";\nimport \"@openzeppelin/contracts/token/ERC721/extensions/ERC721URIStorage.sol\";\nimport \"@openzeppelin/contracts/token/ERC721/extensions/ERC721Enumerable.sol\";\nimport \"@openzeppelin/contracts/access/Ownable.sol\";\nimport \"@openzeppelin/contracts/utils/Counters.sol\";\n\ncontract ResearchProjectFactory is Ownable {\n    address[] private deployedProjects;\n\n    // Deploy a ResearchProject contract -> requires a minimum contribution amount, researcher address, contract address of stablecoin used for payment, and fee percentage\n    function createResearchProject(uint128 minimum, address payable researcher, address stablecoinContract, uint32 feePercentage) external onlyOwner {\n        address newProject = address(new ResearchProject(minimum, researcher, stablecoinContract, feePercentage, payable(msg.sender)));\n        deployedProjects.push(newProject);\n    }\n\n    function getDeployedProjects() external view returns (address[] memory) {\n        return deployedProjects;\n    }\n}\n\ncontract ResearchProject is ERC721, ERC721URIStorage, ERC721Enumerable, Ownable {\n    using Counters for Counters.Counter;\n    Counters.Counter private _tokenIds;\n\n    uint32 private _feePercentage; \n    uint128 private _minimumContribution; \n    uint private _unclaimedFees; \n    uint private _unclaimedContributions; \n\n    address payable private _researcher; \n    address payable private _paymentFeeReceiver; \n\n    IERC20 private _stable; \n\n    address[] private _allContributors; \n\n    event ContributionReceived(address indexed contributor, uint amount, uint tokenId);\n\n    constructor(uint128 minimumContribution, address payable researcher, address stablecoinContract, uint32 feePercentage, address payable paymentFeeReceiver) ERC721(\"inTheory Research NFT\", \"THEORY\") {\n        _stable = IERC20(stablecoinContract);\n        _minimumContribution = minimumContribution;\n        _feePercentage = feePercentage;\n        _researcher = researcher;\n        _paymentFeeReceiver = paymentFeeReceiver;\n        super.transferOwnership(paymentFeeReceiver);\n    }\n\n    // Accepts a contribution and mints an ERC721 to the sender with the metadata located at tokenMetaURI\n    function contribute(uint amount, string calldata tokenMetaURI) external returns(uint) {\n        require(amount >= _minimumContribution, \"Contribution is below the required minimum.\");\n        uint allowance = _stable.allowance(msg.sender, address(this));\n        require(allowance >= amount, \"Check token allowance.\");\n        _stable.transferFrom(msg.sender, address(this), amount);\n        uint newTokenId = _tokenIds.current();\n        uint feeAmount = amount * _feePercentage / 100;\n\n        _mint(msg.sender, newTokenId);\n        _setTokenURI(newTokenId, tokenMetaURI);\n\n        _unclaimedFees = _unclaimedFees + feeAmount;\n        _unclaimedContributions = _unclaimedContributions + (amount - feeAmount);\n\n        _allContributors.push(msg.sender);\n        _tokenIds.increment();\n\n        emit ContributionReceived(msg.sender, amount, newTokenId);\n        return newTokenId;\n    }\n\n    function getAllContributors() external view returns(address[] memory) {\n        return _allContributors;\n    }\n\n    function disburseFunds() external onlyOwner {\n        require(_unclaimedContributions > 0, \"No contributions to claim.\");\n        require(_stable.balanceOf(address(this)) >= _unclaimedContributions, \"Insufficient balance in contract.\");\n        _stable.transfer(_researcher, _unclaimedContributions);\n        delete _unclaimedContributions; // gas-efficient way to reinitialize variable\n    }\n\n    function getUnclaimedContributionsAmount() external view returns(uint) {\n        return _unclaimedContributions;\n    }\n\n    function claimFees() external onlyOwner {\n        require(_unclaimedFees > 0, \"No fees to claim.\");\n        require(_stable.balanceOf(address(this)) >= _unclaimedFees, \"Insufficient balance in contract.\");\n        _stable.transfer(_paymentFeeReceiver, _unclaimedFees);\n        delete _unclaimedFees; // gas-efficient way to reinitialize variable\n    }\n\n    function getUnclaimedFeeAmount() external view returns(uint) {\n        return _unclaimedFees;\n    }\n\n    // Used to empty entire balance of contract, takes boolean as input on whether to reset state variables for unclaimed funds/fees -> function for emergency use only\n    function withdrawBalance(bool resetBalances) external onlyOwner {\n        require(_stable.balanceOf(address(this)) > 0);\n        _stable.transfer(_paymentFeeReceiver, _stable.balanceOf(address(this)));\n        if(resetBalances){\n            _unclaimedFees = 0;\n            _unclaimedContributions = 0;\n        }\n    }\n\n    // The following functions are all getters and setters for state variables\n    function getFeePercentage() external view returns(uint32) {\n        return _feePercentage;\n    }\n\n    function changeFeePercentage(uint32 newFeePercentage) external onlyOwner {\n        require(newFeePercentage <= 100, \"Fee percentage must be <= 100\");\n        _feePercentage = newFeePercentage;\n    }\n\n    function getMinimumContributionAmount() external view returns(uint128) {\n        return _minimumContribution;\n    }\n\n    function changeMinimumContributionAmount(uint128 newContributionMinimum) external onlyOwner {\n        _minimumContribution = newContributionMinimum;\n    }\n\n    function getStablecoinAddress() external view returns(address) {\n        return address(_stable);\n    }\n\n    function changeStablecoinAddress(address newContractAddress) external onlyOwner {\n        _stable = IERC20(newContractAddress);\n    }\n\n    function getCurrentResearcher() external view returns(address) {\n        return _researcher;\n    }\n\n    function changeResearcher(address payable newResearcher) external onlyOwner {\n        _researcher = newResearcher;\n    }\n\n    function getFeeCollector() external view returns(address) {\n        return _paymentFeeReceiver;\n    }\n\n    function changeFeeCollector(address payable newFeeCollector) external onlyOwner {\n        _paymentFeeReceiver = newFeeCollector;\n    }\n\n    // The following functions are overrides required by Solidity\n    function _beforeTokenTransfer(address from, address to, uint256 tokenId, uint256 batchSize)\n        internal\n        override(ERC721, ERC721Enumerable)\n    {\n        super._beforeTokenTransfer(from, to, tokenId, batchSize);\n    }\n\n    function _burn(uint256 tokenId) internal override(ERC721, ERC721URIStorage) {\n        super._burn(tokenId);\n    }\n\n    function tokenURI(uint256 tokenId)\n        public\n        view\n        override(ERC721, ERC721URIStorage)\n        returns (string memory)\n    {\n        return super.tokenURI(tokenId);\n    }\n\n    function supportsInterface(bytes4 interfaceId)\n        public\n        view\n        override(ERC721, ERC721Enumerable)\n        returns (bool)\n    {\n        return super.supportsInterface(interfaceId);\n    }\n}",
  "sourcePath": "/Users/brettcornick/Desktop/Impact-Finance-Development-Files/intheory-beta-mvp/evm/contracts/ResearchProject.sol",
  "compiler": {
    "name": "solc",
    "version": "0.8.9+commit.e5eed63a.Emscripten.clang"
  },
  "schemaVersion": "3.4.13",
  "updatedAt": "2023-03-27T03:05:58.950Z",
  "networkType": "ethereum",
  "devdoc": {
    "kind": "dev",
    "methods": {
      "owner()": {
        "details": "Returns the address of the current owner."
      },
      "renounceOwnership()": {
        "details": "Leaves the contract without owner. It will not be possible to call `onlyOwner` functions anymore. Can only be called by the current owner. NOTE: Renouncing ownership will leave the contract without an owner, thereby removing any functionality that is only available to the owner."
      },
      "transferOwnership(address)": {
        "details": "Transfers ownership of the contract to a new account (`newOwner`). Can only be called by the current owner."
      }
    },
    "version": 1
  },
  "userdoc": {
    "kind": "user",
    "methods": {},
    "version": 1
  }
}